:020000040800F2
:10000000000D002001010008FF1E00083D1D000832
:10001000FD1E000871070008112300080000000001
:10002000000000000000000000000000811F000828
:10003000AB07000800000000391F0008831F0008FC
:10004000152300081B0100081B0100081B01000804
:100050001B0100081B0100081B0100081B01000810
:100060001B0100081B0100081B01000875070008A0
:100070001B0100081B0100081B0100081B010008F0
:100080001B0100081B010008350600081B010008C1
:100090001B0100081B0100081B0100081B010008D0
:1000A0001B0100081B0100081B0100081B010008C0
:1000B0001B0100081B0100081B0100081B010008B0
:1000C0001B0100081B0100081B0100081B010008A0
:1000D0001B010008F92200081B0100080523000885
:1000E0001B0100081B0100081B010008DFF80CD0F1
:1000F00000F08EFA00480047C1230008000D0020E0
:100100000648804706480047FEE7FEE7FEE7FEE7B1
:10011000FEE7FEE7FEE7FEE7FEE7FEE7E51F000875
:10012000ED000008202A04DB203A21FA02F0002129
:10013000704721FA02F3D040C2F1200291400843F7
:1001400019467047D2B201E000F8012B491EFBD2DC
:1001500070470022F6E710B513460A4604461946D2
:10016000FFF7F0FF204610BD2DE9FE4F804681EAE3
:100170000300C00F0C46009021F0004123F0004521
:10018000B8EB0200A94105D24046214690461C46E4
:100190000B46024623F00040104347D0270DC7F31B
:1001A0000A00C3F30A510290401A019040286BDA0A
:1001B000C3F3130040F4801B0098924620B1002343
:1001C000D2EB030A63EB0B0B01985946C0F14002D6
:1001D000504600F09FF906460D4650465946019A92
:1001E00000F0A7F910EB08006141002487EA1152E2
:1001F00084EAE7731A4340D0009A62B3019A012A55
:100200004FEA075215DC001B61EB02014FF0004280
:1002100002EA0752CDE90042001C41F58011324646
:100220002B4600F0A7F903B0BDE8F08F4046214609
:10023000F9E7001B61EB0201001C41F58013001877
:100240005B412018A2F5001747EB030140EAD57087
:10025000B6196D4111E06D084FEA360645EAC075E2
:100260004FEA0752001B61EB0201001C41F58011AF
:1002700049084FEA30000019514132462B4603B07D
:10028000BDE8F04F00F067B900980122400000235C
:10029000D0EB020263EBE073009821464FEAE07472
:1002A000B8EB000061EB0401E9E783F000435BE792
:1002B00081F0004158E72DE9FE4F81EA030404F084
:1002C000004421F0004100944FF0000B23F0004364
:1002D00050EA01045ED052EA03045BD0C3F30A542F
:1002E000C1F30A552C44A4F2F3340194A0FB025448
:1002F000C1F3130141F48011C3F3130343F48013DA
:1003000001FB024400FB034E840A970A44EA81542D
:1003100047EA8357A4FB076802958D0A05FB07850A
:100320004FEA932C04FB0C542705029D4FEA065814
:1003300047EA1637B5EB08056EEB070C870E920EF1
:1003400047EA811742EA8312A7FB0201B6EB0B01D1
:1003500064EB00042B0D43EA0C335E1844EB1C5095
:10036000DA465146E7FB0201C5F313044FEA0B33AB
:1003700043EA14534FEA0432019C43EA0603A4F112
:100380000C040294009CCDE900B400F0F3F803B033
:10039000BDE8F08F00200146F9E72DE9F04D81EA34
:1003A000030404F0004B21F0004514464FF0000A0E
:1003B00023F0004150EA050220D054EA01021DD08A
:1003C000C5F30A570246C5F31303C1F31300C1F383
:1003D0000A5640F4801543F48013A7EB0608101B5F
:1003E000D64608F2FD3873EB050002D308F1010888
:1003F00001E092185B41B8F1000F03DA00200146DA
:10040000BDE8F08D00204FF48011064684460EE0D2
:10041000171B73EB050705D3121B63EB050306439C
:100420004CEA010C49084FEA300092185B4150EA4F
:100430000107EDD152EA030012D082EA040083EAF8
:100440000501084305D0101BAB4106D20122002351
:1004500006E000224FF0004302E06FF0010253106B
:100460001AEB06004CEB085110EB0A0041EB0B01B4
:10047000BDE8F04D00F06FB870B521F000430343C4
:100480000CD0C1F30A550024D5EB040564EB04033A
:10049000D617AD1AB34102DB0020014670BD20180B
:1004A00041EB025170BD0EB5C10F80EAE070084407
:1004B000CA07002140F233438DE80E000A460B467E
:1004C00000F058F803B000BD0EB540F23341029180
:1004D0000021CDE900110A460B4600F04BF803B0AD
:1004E00000BDC1F30A5210B5C1F3130140F2FF334E
:1004F00041F480119A4201DA002010BD40F23343EA
:100500009A42A2F2334203DC5242FFF70BFE10BDC7
:10051000904010BD202A04DB203A00FA02F10020AE
:1005200070479140C2F1200320FA03F31943904031
:100530007047202A06DBCB17203A41FA02F043EA43
:10054000E07306E041FA02F3D040C2F1200291408C
:1005500008431946704710B5141E73F1000408DAF9
:10056000401C41F1000192185B411A4301D120F077
:10057000010010BD2DE9F04D92469B4611B1B1FA34
:1005800081F202E0B0FA80F220329046FFF7C2FF1B
:1005900004460F4640EA0A0041EA0B0153465A4618
:1005A000084313D0114653EA010019D0C8F14002A4
:1005B0005046FFF7B7FD05460E465046594642469F
:1005C000FFF7A8FF084305D0012004E02046394684
:1005D000BDE8F08D0020054346EAE0762C43374322
:1005E0000A986305E40AA0EB08000022FD0A44EA29
:1005F00047540A3002D500200146E9E701051019E9
:100600006941DDE9084500196941BDE8F04DA2E7FF
:10061000064C074D06E0E06840F0010394E807004F
:1006200098471034AC42F6D3FFF764FD5828000811
:1006300078280008014800F03CB90000F4070020C9
:1006400070B5044600688168C943C9071CD1816838
:1006500021F00101816000F063FD05460FE000BF5D
:1006600000F05EFD401B022809D9A06A40F010008E
:10067000A062E06A40F00100E062012070BD2068E5
:100680008068C043C007EBD0002070BD10B50146A4
:10069000406A826A12F0500F05D0006A026BBDE812
:1006A000104008461047816A41F400718162016878
:1006B0008968C1F3424107290CD1017B51B9816A94
:1006C00021F480718162816AC90403D4816A41F096
:1006D0000101816200F0EAF810BD10B5406A816A3C
:1006E00041F040018162C16A41F00401C16200F041
:1006F000DFF810BD10B5406A00F0D9F810BD000059
:10070000F8B500260446009600688168C943C90709
:1007100028D0816841F001018160134813490068C5
:10072000B0FBF1F000E0401E00900028FBD100F08B
:10073000F7FC054611E000BF00F0F2FC401B022868
:100740000BD9A06A40F01000A062E06A40F00100FE
:10075000E06284F824600120F8BD20688068C0430E
:10076000C007E9D10020F8BD2400002040420F005E
:10077000FEE70000014800F0C1BA0000B808002000
:1007800030B590F840500124AC40C56B6C600468F3
:1007900063604368102B036803D099600068C260EF
:1007A00030BD9A600068C16030BD704770477047C7
:1007B000F8B50024009490F824202546012A12D090
:1007C000012280F824204A681F23072A0DD20668D8
:1007D000776B521E02EB820293409F430B6893405B
:1007E0001F43776319E00220F8BD06680D2A0AD27C
:1007F000376BD21F02EB820293409F430B689340FA
:100800001F43376309E0F76A0D3A02EB8202934017
:100810009F430B6893401F43F7620A6807230668EB
:100820000A2A0AD3F7680A3A02EB420293409F432E
:100830008B6893401F43F76008E0376902EB420280
:1008400093409F438B6893401F4337610A68102A87
:1008500001D0112A20D1124B02689A4217D1936815
:100860001B0219D4936843F40003936009681029AC
:1008700012D10C490C4A0968B1FBF2F101EB81017C
:10088000490000E0491E00910029FBD104E0816A83
:1008900041F020018162012480F824502046F8BDF7
:1008A000002401402400002040420F0070477047A0
:1008B000704710B5044600684168890626D501686E
:1008C000890723D5A16AC90603D4A16A41F400713E
:1008D000A1628168C1F34241072910D1217B71B91E
:1008E000416821F020014160A06A20F48070A0627C
:1008F000A06AC00403D4A06A40F00100A0622046B0
:10090000FFF7D4FF21686FF012000860206841688B
:1009100009062ED5016849072BD5A16AC90603D45B
:10092000A16A41F40051A1628168C1F30231072933
:1009300009D04168490515D48168C1F342410729AE
:1009400010D1217B71B9416821F080014160A06A1A
:1009500020F48050A062A06AC00503D4A06A40F0D1
:100960000100A0622046FFF722FF21686FF00C0013
:1009700008602068416849060DD50068C0070AD0A4
:10098000A06A40F48030A062204600F093F821680D
:100990006FF00100086010BD2DE9F0414FF0000735
:1009A00004003D467ED0A06A002628B9E66284F89D
:1009B0002460204600F080F82046FFF741FEA16A3F
:1009C000C90600D420B1A06A40F01000A06269E01E
:1009D000A16A21F4885141F00201A1626268E169D3
:1009E000237B0A4347EA43010A43A1684FF4807717
:1009F000B94209D0012907D05FF0000194F814C072
:100A0000BCF1010F02D00AE03946F7E7F3B1A36A5F
:100A100043F02003A362E36A43F00103E362236827
:100A2000D3F804C02CF4694C4CEA010CC3F804C0A0
:100A300021688B68DFF870C003EA0C0313438B60F6
:100A4000A168B9420BD0012909D00CE0DFF85CC0E5
:100A5000A3690CEB43330B4343F40061DFE7218AC6
:100A60000D05A5F580152168CB6A23F470032B438F
:100A7000CB62216889680E4B1940914208D1E66229
:100A8000A16A21F0020141F00101A162BDE8F081FB
:100A9000A06A20F0020040F01000A062E06A40F07E
:100AA0000100E0620120F1E7FDF7E1FF00E0FFFF58
:100AB000FE0E1FFF7047000070B586B00025064689
:100AC000009501950295039500681E49884236D12C
:100AD0001D49886940F400708861886900F40070DD
:100AE0000490886940F0040088618869694600F0D4
:100AF00004000490FF20009003200190134800F0B0
:100B00000DFA144C1248C4E900058020C4E90250D3
:100B100040002061800060612020C4E90605204675
:100B200000F096F908B1FFF741FE34620022114649
:100B30001220666200F060FB122000F04FFB06B04E
:100B400070BD000000240140001002400008014078
:100B500008000240B80800202DE9F0478946044605
:100B60003B4900683B4F0E1D9046884201D0B84279
:100B700007D1306810F4702F03D001252846BDE856
:100B8000F08794F8240001280CD0012084F8240078
:100B90002046FFF7B5FD05004FF0000004D084F8B3
:100BA0002400EBE70220EAE7A16A40F601629143E4
:100BB00041F48071A1622168B94218D1326812F4FF
:100BC000702F14D0A16A41F48011A16231684905E7
:100BD00005D5A16A21F4005141F48051A162A16AB6
:100BE000C9040AD5E16A21F00601E16206E0A26AC1
:100BF00022F48012A2624968E9E7E06284F82400E6
:100C0000216A15488862216A1448C862216A14481A
:100C1000086321686FF0020008602068816841F471
:100C200080718160216843464A464C31206A00F059
:100C30003DF920688168C1F342410729816803D0EA
:100C400041F48011816099E741F4A001FAE70000C6
:100C500000240140002801408D060008F506000828
:100C6000DB06000810B590F821100024022903D0FB
:100C70000421816301243DE001680A6822F00E022C
:100C80000A6001680A6822F001020A601A4A0168D3
:100C9000914201D1012121E0174A1432914201D140
:100CA00010211BE0144A2832914201D1891515E028
:100CB000114A3C32914201D189140FE00E4A503260
:100CC000914202D14FF4803108E00B4A64329142E4
:100CD00002D14FF4801101E04FF08071064A083ACA
:100CE0005160012180F82110002180F82010416B13
:100CF00001B18847204610BD080002402DE9F05F91
:100D0000C16B0C6801680B68D0F840C0042202FA7D
:100D10000CF2494DDFF824A1494E4A4FDFF828B1C3
:100D2000DFF828E122422CD05A072AD50A68920619
:100D300003D40A6822F004020A600168A94201D1C2
:100D4000042219E0514501D1402215E0B14202D1FF
:100D50004FF4806210E0B94202D14FF480420BE0C0
:100D6000594502D14FF4802206E0714502D14FF47B
:100D7000800201E04FF080622F4908394A60C16A61
:100D80003BE04FF0020808FA0CF818EA040F4FF0A5
:100D900000094FF0010235D05FEA837832D50B6845
:100DA0009B0605D40B6823F00A030B6080F8212012
:100DB0000168A94201D1022219E0514501D1202246
:100DC00015E0B14202D14FF4007210E0B94202D1F5
:100DD0004FF400520BE0594502D14FF4003206E0C7
:100DE000714502D14FF4001201E04FF00072124938
:100DF00008394A6080F82090816A00291AD0BDE83D
:100E0000F05F0847082505FA0CF5254212D01B07AC
:100E100010D50B6823F00E030B6090F84010C36BE5
:100E200002FA01F15960826380F8212080F8209055
:100E3000016BE2E7BDE8F09F080002401C000240A1
:100E40003000024044000240580002406C00024062
:100E500030B528B308C8134914221944B1FBF2F184
:100E60008900C16310498163022141771A6843F602
:100E7000F0718A43D0E900142143D0E902452C43A4
:100E80002143046921434469214384692143114377
:100E9000196000214163012242770177084630BD85
:100EA000012030BDF8FFFDBF0000024070B50446D0
:100EB00090F82000002501280CD0012084F82000A3
:100EC00094F821600020012E06D084F8200002252D
:100ED000284670BD022070BD022684F82160A06300
:100EE0002068066826F0010606602046FFF748FCE9
:100EF000E06A00282068016802D041F00E0106E097
:100F000021F0040101602068016841F00A010160DC
:100F10002068016841F001010160D9E72DE9F84F2F
:100F2000DFF8B891002409F1040A0AF1040B234602
:100F30000F270BF1040EC9E00125A5402A40AA4263
:100F40007DD1674ED1F804C0ACEB0608B44532D071
:100F500014DCBCF1030F3AD009DCBCF1000F2AD03D
:100F6000BCF1010F1CD0BCF1020F31D11DE0BCF16E
:100F7000110F17D0BCF1120F2AD119E0B8F5881F54
:100F800019D006DCB8F5803F15D0B8F5801F1FD109
:100F900011E0B8F5001F0ED0B8F5041F18D10AE013
:100FA000CB6815E0CB681B1D12E0CB6808330FE05F
:100FB000CB680C330CE08B682BB1012B4FF008038E
:100FC00003D0456104E0042302E0056100E0002352
:100FD000FF2A01D8064601E000F104064FEA840525
:100FE00001D9A5F12005D6F8008007FA05FC28EA0A
:100FF0000C0803FA05F548EA0508C6F800804D68B4
:10100000ED0062D5374DAE6946F00106AE61AD69BF
:1010100024F0030605F001050095334D06EB050CA1
:10102000DCF80850A607360F07FA06F825EA080587
:10103000DFF8B880404503D14FF0000817E044E0E6
:10104000DFF8AC80404502D14FF001080FE0DFF837
:10105000A480404502D14FF0020808E0DFF89880F4
:10106000404502D14FF0030801E04FF0040808FAB0
:1010700006F848EA0508CCF808804D68D9F8006001
:10108000ED034D4601D5164300E096432E604D68B2
:10109000DAF80060AD03554601D5164300E09643EB
:1010A0002E604D68DBF80060ED025D4601D5164309
:1010B00000E096432E604D68DEF80060AD02754694
:1010C00001D5164300E096432E60641C0D682A4645
:1010D000E5407FF431AFBDE8F88F00000004014027
:1010E0000000111000100240000001400008014003
:1010F000000C0140001001400014014080680840CD
:1011000000D001207047C2680A4201D04161704797
:10111000016170470AB1016170470904FBE70000F3
:10112000014880687047000018000020024881686C
:10113000027811448160704718000020074810B5FC
:10114000016841F010010160032000F075F80020F3
:1011500000F006F800F024F8002010BD0020024046
:1011600070B50D4D04464FF47A712878B1FBF0F05C
:101170000A490968B1FBF0F000F066FB48B9102C91
:1011800007D200222146501E00F036F800206C6085
:1011900070BD012070BD0000180000202400002058
:1011A0000C4808B5816941F001018161816901F054
:1011B00001010091C16941F08051C161C06900F035
:1011C000805000900448416821F0E06141F00071D6
:1011D000416008BD0010024000000140002809DB0A
:1011E00000F01F02012191404009800000F1E02041
:1011F000C0F8001170470000F0B40E4B1B680C469D
:10120000C3F30223C3F10705042D00D90425191DDA
:10121000072901D2002300E0DB1E012606FA05F1B2
:10122000491E214099409E40761E16403143F0BC35
:1012300001F084B80CED00E0064900F007020868F0
:101240004FF6FF03184040EA0220034A10430860AB
:10125000704700000CED00E00000FA052DE9F843AE
:1012600005460078354CC00754D0E0690026C00020
:1012700008D4E06940F08050E061E069012600F0A8
:10128000805000902E480168C90512D4016880463C
:1012900041F480710160FFF743FF074605E000BF9E
:1012A000FFF73EFFC01B642823D8D8F80000C00514
:1012B000F6D5206A10F4407021D0A98801F440715D
:1012C00081421CD0206A1F49012220F440700A602C
:1012D00000220A602062C00711D0FFF721FF0746F5
:1012E00041F2883808E000BFFFF71AFFC11B4145F3
:1012F00002D90320BDE8F883206A8007F4D5206A6C
:10130000696820F44070084320621EB1E06920F053
:101310008050E0612878800705D56068A96820F4CE
:101320004040084360602878C00605D56068E968D9
:1013300020F48000084360600020DBE700100240DA
:1013400000700040400442422DE9F0470F4605007E
:1013500061D0434E306800F00700B84209D23068CF
:1013600020F0070038433060306800F00700B842D2
:1013700051D128683B4C810712D5400703D56068DE
:1013800040F4E06060602878000703D5606840F4AE
:10139000605060606068A96820F0F00008436060F9
:1013A0002878C00728D06868012810D02168022852
:1013B00010D0890700292EDA616821F0030101436A
:1013C0006160FFF7ADFE804641F288390DE021688B
:1013D0008903EFE78901EDE7FFF7A2FEA0EB080123
:1013E000494502D90320BDE8F0876068696800F0CC
:1013F0000C00B0EB810FEFD1306800F00700B8426D
:101400000BD9306820F0070038433060306800F0B6
:101410000700B84201D00120E5E72878400705D54C
:101420006068E96820F4E06008436060287800079D
:1014300006D56068296920F4605040EAC100606008
:1014400000F038F86168084AC1F30311515CC840E4
:101450000649086006480068FFF782FE0020C2E7E0
:101460000020024000100240402800082400002014
:101470001C0000200448054900684968044AC1F37B
:101480000221515CC8407047240000200010024037
:10149000502800080448054900684968044AC1F317
:1014A000C221515CC8407047240000200010024057
:1014B0005028000813A185B00FC98DE80F0015A0B2
:1014C000154A00680490516801F00C00042804D00B
:1014D000082804D0114805B070471148FBE7C1F354
:1014E0008343C9031DF8030009D5516804AAC1F359
:1014F0004041515C0A4A5043B0FBF1F0EBE7094927
:101500004843E8E702030405060708090A0B0C0D27
:101510000E0F1010010200000010024000127A00AD
:10152000001BB70000093D002DE9F84F040070D002
:101530002078C04DC00749D06868C0F381000128F9
:1015400007D06868C0F38100022809D16868C00329
:1015500006D52868800339D560680028E7D035E0D3
:101560006068B0F5803F0BD010B1B0F5A02F11D05E
:10157000286820F480302860286820F4802002E069
:10158000286840F480302860606890B1FFF7C8FD9B
:1015900006460AE0286840F480202860F0E700BF93
:1015A000FFF7BEFD801B642873D828688003F7D539
:1015B0000CE0FFF7B5FD064605E000BFFFF7B0FD04
:1015C000801B6428F0D828688003F7D420789A4ECE
:1015D00080074FF001094FF0000839D5686810F016
:1015E0000C0F07D06868C0F38100022809D1686831
:1015F000C00306D42868800714D52069012808D1C3
:1016000010E02069B0B1C6F80090FFF789FD0746E9
:1016100005E00AE1FFF784FDC01B0228C4D8286852
:101620008007F7D52868616920F0F80040EAC1001A
:1016300028600DE0C6F80080FFF772FD074604E061
:10164000FFF76EFDC01B022823D828688007F7D457
:10165000207800072CD57948A169D9B1C0F800904D
:10166000FFF75EFD074604E0FFF75AFDC01B0228A6
:101670000FD8686A8007F7D571484FF4FA510068AF
:10168000B0FBF1F0009000BF0098411E0091FAD22B
:101690000EE080E0C0F80080FFF742FD074604E05E
:1016A000FFF73EFDC01B022875D8686A8007F7D493
:1016B0002078400760D5E8690027C00008D4E869B1
:1016C00040F08050E861E869012700F08050009008
:1016D0005C480168C90513D40168834641F48071F0
:1016E0000160FFF71DFD824606E000BFFFF718FD11
:1016F000A0EB0A0064284ED8DBF80000C005F5D541
:10170000E06801280AD008B1052813D0286A20F023
:1017100001002862286A20F0040002E0286A40F0F4
:1017200001002862E06841F2883B98B1FFF7F8FCBD
:1017300082460BE0286A40F004002862EEE700BF12
:10174000FFF7EEFCA0EB0A0159455AD8286A80073A
:10175000F6D50CE0FFF7E4FC824605E0FFF7E0FC7D
:10176000A0EB0A0159454CD8286A8007F6D41FB16E
:10177000E86920F08050E861E06988B36968C1F3E6
:101780008101022944D00228C6F8608004D0FFF706
:10179000C7FC044638E034E0FFF7C2FC074604E02B
:1017A000FFF7BEFCC01B02282BD828688001F7D4A5
:1017B000206AB0F5803F05D16868A16820F4003048
:1017C00008436860D4E908010843696821F474118A
:1017D00008436860C6F86090FFF7A2FC044606E084
:1017E00025E000BFFFF79CFC001B022809D82868F1
:1017F0008001F7D51BE000BFFFF792FC001B022819
:1018000002D90320BDE8F88F28688001F4D40EE0E7
:101810000128F7D06868226A00F48031914204D12F
:10182000616A00F47010884201D00120EAE70020CC
:10183000E8E70000001002400000424280044242FB
:10184000240000200070004010B5401EB0F1807FE1
:1018500001D3012010BD4FF0E02460610F2160171B
:1018600000F06CFD0020A06107202061002010BD69
:101870007047000070B5026804461068D16853696B
:1018800010F00F0F50D003F0010501F490763543AE
:101890005DD0C20705D0CA0503D5E26B42F0010254
:1018A000E263420705D5DA0703D0E26B42F0020299
:1018B000E263820705D5DA0703D0E26B42F0040247
:1018C000E263020705D5DA0703D0E26B42F00802B3
:1018D000E263E26B002A33D0800604D5880602D585
:1018E000204600F0FDFB20684069E16BC0F38010EA
:1018F000090700D428B3204600F0E4FB20684169C2
:1019000049061AD5416921F040014161606BA0B1DF
:101910001B494163606BFFF7A5F9002810D0606B8D
:10192000416BBDE870400847830610D58B060ED585
:101930002046BDE8704000F0D3BB2046FFF798FF7B
:1019400070BD2046FFF794FF0020E06370BD0306E2
:1019500006D50B0604D52046BDE8704000F068BCF3
:101960004006F3D54806F1D5D168204621F0400164
:10197000D160202184F8391000F059F970BD0000C1
:10198000B520000870B5040004D094F83900002593
:1019900010B106E0012070BD84F83850204600F0F8
:1019A00023F8242084F839002068C16821F400510C
:1019B000C160204600F0E0FB2068016921F49041FD
:1019C00001612068416921F02A0141612068C168F4
:1019D00041F40051C160E563202084F8390084F8A7
:1019E0003A00002070BD000070B586B0002400945D
:1019F00001940294039403682E482D4E0221032281
:101A00000515B34226D1836943F48043836183691A
:101A100003F480430493836943F004038361806982
:101A2000254E00F0040004900802CDE90001039265
:101A300069463046FFF772FACDE9005469463046F0
:101A40000294FFF76BFA002211462520FFF7D4FB22
:101A5000252028E0194EB34227D1C36943F48023DF
:101A6000C361C36903F480230493836943F00803CB
:101A700083618069CDE9005100F00800CDE90320C1
:101A80000F4D69462846FFF749FAE814CDE90004EE
:101A9000694628460294FFF741FA002211462720A2
:101AA000FFF7AAFB2720FFF799FB06B070BD0000E7
:101AB000003801400010024000080140004800408A
:101AC000000C014090F83A30202B22D1F9B1F2B14C
:101AD00090F83830012B1CD081628285C2850021AC
:101AE000C163222280F83A2080F838100168CA6861
:101AF00042F48072CA6001684A6942F001024A6198
:101B00000068C16841F02001C160002070470120D9
:101B1000704702207047000010B5006811498842E4
:101B20001ED1FFF7FDFA104CA168401A052802D912
:101B3000E068022802D2E068FF2801D90020E060B6
:101B4000FFF7EEFAA060094AE06821781154401CC2
:101B5000E060BDE81040012203490548FFF7B2BF2D
:101B600010BD00000048004000000020F4060020E6
:101B7000640800202DE9F843044690F839001F4618
:101B800016460D46202850D1A5B19EB194F83800D4
:101B900001284AD0012084F838004FF00008C4F82A
:101BA0003C80212084F83900FFF7BAFAA6848146E8
:101BB000E68426E00120BDE8F883E08C401EE08446
:101BC000A0684B46B0F5805F4FF000024FF08001F7
:101BD0002046009703D000F05CFBE8B90DE000F070
:101BE00058FBC8B928882168C0F3080048602069FC
:101BF00008B16D1C05E0AD1C03E0216815F8010B70
:101C00004860E08C0028D8D14B4600224021204675
:101C1000009700F03EFB08B10320CCE7202084F8B9
:101C2000390084F838800020C5E70220C3E77047F8
:101C300010B5054C6168C82904D800F049F86068FF
:101C4000401C606010BD00000000002010B501685D
:101C50004A68D243920507D48A68D243D20703D197
:101C6000921E8A60FFF7E4FF10BD10B504000FD08C
:101C700000F010F8E068216840F0800008606168BA
:101C800020690843A168084321684860002010BD0E
:101C9000012010BD08B500680B49884212D10B48DD
:101CA000C16941F40061C161C069002200F40060B3
:101CB000009011461046FFF79FFABDE8084000204B
:101CC000FFF78CBA08BD0000002C00400010024055
:101CD000C1680068016000207047000070B50D46C3
:101CE0000646154C16E000BF36F8150010B3012269
:101CF00008212046FFF70EFA002201212046FFF7B7
:101D000009FA00F04BFB012211462046FFF702FAC8
:101D100000F044FB6D1EE7D2002202212046FFF7AF
:101D2000F9F900F03BFB2046BDE87040012202219A
:101D3000FFF7F0B90022DBE700100140FEE70000EA
:101D4000FEB50024264800940194244902940160C1
:101D500089158160012505730475082606614FF415
:101D600060214460C161FEF717FECDE90045694678
:101D70001B480294FEF71CFD0224CDE9005469467D
:101D80001748FEF715FD0094032469461448019492
:101D9000FEF70EFD00940424694611480194FEF7F5
:101DA00007FD0094052469460D480194FEF700FDE7
:101DB0000094062469460A480194FEF7F9FC009451
:101DC0000724694606480194FEF7F2FCCDE9004677
:101DD00069460348FEF7ECFCFEBD0000002401400C
:101DE000F40700202DE9F04F85B000243E48009410
:101DF000019402940394816941F010018161816929
:101E000001F010010491816941F020018161816933
:101E100001F020010491816941F00401816181692F
:101E200001F004010491816941F008018161806938
:101E3000DFF8B89000F008004FF20F050490002280
:101E400029464846FFF766F9DFF8A4A04FF4885703
:101E5000002239465046FFF75DF9DFF898B00022BE
:101E600004215846FFF756F94FF47E780022414688
:101E70002148FFF74FF90095022601250396CDE989
:101E8000015469464846FFF749F84FF47040CDE9E0
:101E90000004694618480294FFF740F84FF4707048
:101EA000CDE90004694648460294FFF737F80097E9
:101EB0000396CDE9015469465046FFF72FF80420F8
:101EC000CDE90005CDE9024669465846FFF726F8F8
:101ED000CDF800800396CDE9015469460648FFF726
:101EE0001DF805B0BDE8F08F001002400010014061
:101EF0000008014000140140000C0140FEE770475B
:101F000010B5FFF70DF90849012288600748FFF76F
:101F1000D9FD00F0D3FABDE810404FF448720449EF
:101F20000448FEF719BE00000000002064080020ED
:101F30002C000020F40700207047000070B50C460C
:101F40000546FFF7EDF8074A9168401A042807D3C1
:101F5000D368022B04D32370034828600020D0608C
:101F600070BD000000000020F40600200A46014673
:101F70004FF4FA730148FFF7FDBD0000640800202C
:101F80007047FFF7D3B830B593B028216846FEF705
:101F9000E0F814210AA8FEF7DCF8002401200F94D1
:101FA00010941194010412948DE81300049000051C
:101FB000CDE90810022507956846FFF7B5FA0F200E
:101FC000CDE90A056802CDE90C4002210AA80E9469
:101FD000FFF7BAF9A80311900F950FA8FFF73EF984
:101FE00013B030BD0D48016841F001010160416846
:101FF0000B4A1140416001680A4A114001600168C2
:1020000021F480210160416821F4FE0141604FF418
:102010001F0181600449C00308607047001002403E
:102020000000FFF8FFFFF6FE08ED00E02DE9F047A5
:102030001E4F044600254FF480494FF400464FF6EA
:10204000FF78012231463846FFF764F804F4004077
:10205000B04201D1012200E0002249463846FFF794
:1020600059F8002231463846FFF754F86D1CEDB29E
:1020700008EA44040B2DE4D30D4D4FF40074002204
:1020800021462846FFF746F8012221462846FFF759
:1020900041F82401002221463846FFF73BF821464B
:1020A0003846BDE8F0470122FFF734B80010014080
:1020B000000C014010B5406A0021C185C184FFF7C2
:1020C000D7FB10BD0168CA6822F49072CA6001682B
:1020D0004A6922F001024A61202180F83A107047D3
:1020E00010B590F83A10222901D0022010BD816865
:1020F000B1F5805F11D00169002901681FD04968DE
:1021000001F07F03816A4A1C82620B70C18D491EF7
:102110000904090CC18518D02BE00269816A002AE4
:102120000268526805D0D2B20A80816A491C816275
:10213000ECE7C2F308020A80816A891CF7E74A6863
:10214000816A4B1C83620A70E0E70168CA6822F06A
:102150002002CA600168CA6822F48072CA600168FD
:102160004A6922F001024A61202180F83A10FFF703
:10217000D3FC002010BD00002DE9F04104460068AA
:102180000169E26821F44051114301612169A068AD
:102190000843616908432168CA6841F20C639A43A5
:1021A0000243CA6020684169A26921F44071114369
:1021B00041611E49206864253226884202D1FFF71A
:1021C00069F901E0FFF756F900EBC00101EB0011DE
:1021D00060686FF018078000B1FBF0F2B2FBF5F217
:1021E000B1FBF0F37A4303EB8202B1FBF0F306EBB1
:1021F0000212B2FBF5F2B3FBF5F302F0F00202EBD0
:102200000312B1FBF0F3B1FBF0F0B0FBF5F0784353
:1022100003EB800006EB0010B0FBF5F0216800F046
:102220000F0010448860BDE8F081000000380140D4
:1022300090F83910212901D0022070478168B1F54A
:10224000805F016A0BD04A1C026202680978516003
:10225000C18C491E0904090CC1840ED017E00988FD
:102260000268C1F30801516001690029016A02D0C6
:10227000491C0162ECE7891CFBE70168CA6822F08F
:102280008002CA600068C16841F04001C16000205E
:1022900070472DE9F041984617460E460446069DC4
:1022A0001DE0681C1BD02DB1FEF73AFFA0EB080023
:1022B000A84214D92068C16821F4D071C160206897
:1022C000416921F001014161202084F8390084F83E
:1022D0003A00002084F838000320BDE8F08120682F
:1022E000006836EA000004D00020B842D9D00020AF
:1022F000F3E70120F9E700000148FFF7BBBA00004F
:10230000240800200148FFF7B5BA00006408002047
:10231000FEE700000148FFF799BC0000A408002078
:10232000014900204860704700000020014A02492E
:1023300000F023B8A9230008280000200907090E8F
:10234000002804DB00F1E02080F80014704700F062
:102350000F0000F1E02080F8141D704702E008C86B
:10236000121F08C1002AFAD170477047002001E00F
:1023700001C1121F002AFBD170472DE9F04116461A
:102380000F460446002503E03946B047641C6D1C27
:1023900020780028F8D12846BDE8F08100BF00BFB2
:1023A00000BF00BF7047000013B50A230122694631
:1023B0000248FFF7DFFB00981CBD00002408002046
:1023C00008B5FEF7BBFEFFF7DEFDFFF70BFD30485B
:1023D000416941F0010141614069002200F00100C2
:1023E000009011460B20FEF707FF0B20FEF7F6FECC
:1023F000294828494FF4E13500240160C0E901541F
:102400000C26C460C0E904468461C461FFF7BAFACF
:102410002148224980300160710141605A21816068
:102420007F21C1604FF400710161FFF71EFCFFF7CF
:1024300087FC19481A4940300160C0E90154C46062
:10244000C0E904468461C461FFF79CFA154D01227E
:1024500011032846FEF75EFEFFF752FD12A0FFF7BC
:1024600065FF4FF47A76144C5FEAA557FEF758FEE5
:102470002168401AB04206D939462846FEF743FE85
:10248000FEF74EFE206000F041F8FFF749FFEDE750
:10249000001002400038014024080020002C0040B9
:1024A000004800400008014073797374656D207323
:1024B000746172740000000014000020F0B4124B2C
:1024C00002210020A3F85A102821044603F16002DB
:1024D0005FF0010602EB800722F820407C8033F891
:1024E00011500DB1032D01D122F82060022D00D131
:1024F0007E80401C491C3029ECDBF0BC02481021D6
:102500006030FFF7EBBB00006C06002010B5164CE6
:102510000020611C607001F10F00FFF70FFD607873
:1025200002280ED32069017803290AD14078302887
:1025300007D800F09DF82069407841000B48FFF76C
:1025400015FD607804280ED32069017804290AD18A
:102550004178302907D2054A408822F81100BDE8A9
:10256000104000F005B810BD000000206C060020EF
:102570002DE9F047384C4FF4805114F8300F00F03B
:1025800001023648FEF7C6FDA078042100F00102E2
:102590003348FEF7BFFD2079324E00F001020821DA
:1025A0003046FEF7B7FDA079102100F00102304659
:1025B000FEF7B0FD207A202100F001023046FEF740
:1025C000A9FDA07A402100F001023046FEF7A2FDED
:1025D000207B802100F001023046FEF79BFDA07BAE
:1025E000202500F00102E9003046303CFEF792FD64
:1025F000DFF87480DFF874904FF6FF77A5F12000C4
:10260000C6B234F81500FDF75FFF00224346FDF720
:10261000C4FE00224B46FDF74EFEFDF762FFC0B23E
:1026200007EA401076B1012E04D0022E05D0032E09
:1026300006D00BE040F4804004E040F4004001E0AC
:1026400040F4404040F40050FFF7F0FC6D1C242D96
:10265000D4DBBDE8F08700006C06002000100140CC
:1026600000140140000C01400000594000003940B6
:102670002DE9F84F6A4C4FF400712046FEF73EFDFD
:1026800000287FD00020674E4FF4807130802046B4
:10269000FEF734FD002877D000207080802120468E
:1026A000FEF72CFD002871D00020B080402120468C
:1026B000FEF724FD00286BD000205B4CF0804FF427
:1026C00000412046FEF71AFD002863D0002030812B
:1026D0004FF480412046FEF711FDE8B300207081E1
:1026E0004FF400512046FEF709FDB0B30020B08141
:1026F0004FF480512046FEF701FD78B300200824F6
:10270000F0810027DFF8248125460097002041460C
:10271000CDF8007004EBC00201EB4202009B32F8DE
:10272000102C401C1A4400926428F3DB1046FDF77D
:10273000BAFE4FF066323E4BFDF7BDFD6FF00B0267
:10274000FDF79AFE3B4A3C4BFDF7B5FDFDF7C9FE90
:1027500026F81400641C03E01EE01FE020E011E0F6
:10276000102CD3DB2C46601B06EB4000B0F8500069
:10277000C0B1012825D0022826D003281CD12AE088
:1027800002E003E001207EE7012086E701208CE7DC
:10279000012092E701209AE70120A0E70120A6E7A7
:1027A0000120ACE736F81400B0F5FA7F01D801201B
:1027B00000E0002026F81400641C102CD3DBBDE8D8
:1027C000F88F36F81400F5E736F814104FF6FF705E
:1027D00000EA4100EEE736F81470B7F5617F02D9E0
:1027E0000020014619E007EB47014FF0640AB1FBF6
:1027F000FAF0FDF769FE4FF03332104BFDF758FD4C
:10280000804644F620604743B7FBFAF08946FDF75F
:102810005BFE42464B46FDF7C0FDFDF762FEC9E791
:10282000001001406C060020000C01402C0000202C
:1028300066660A40CC7F48BF7D9D084033333D40EB
:102840000000000000000000010203040607080960
:1028500000000000010203047828000800000020A6
:102860002C0000005C230008A42800082C00002095
:10287000D40C00006C2300080000000000000000E1
:102880000000000000000000000000000000000048
:102890000100000010000000000000000024F4000F
:0428A0000000000034
:04000005080000ED02
:00000001FF
